{
	"study-token/DemoA.sol": {
		"DemoA": {
			"abi": [
				{
					"inputs": [],
					"name": "getName",
					"outputs": [
						{
							"internalType": "string",
							"name": "",
							"type": "string"
						},
						{
							"internalType": "string",
							"name": "",
							"type": "string"
						},
						{
							"internalType": "string",
							"name": "",
							"type": "string"
						}
					],
					"stateMutability": "nonpayable",
					"type": "function"
				},
				{
					"inputs": [
						{
							"internalType": "string",
							"name": "_name",
							"type": "string"
						}
					],
					"name": "setName",
					"outputs": [],
					"stateMutability": "nonpayable",
					"type": "function"
				}
			],
			"devdoc": {
				"kind": "dev",
				"methods": {},
				"version": 1
			},
			"evm": {
				"assembly": "    /* \"study-token/DemoA.sol\":100:359  contract DemoA {... */\n  mstore(0x40, 0x80)\n    /* \"study-token/DemoA.sol\":122:144  string name = \"nobody\" */\n  mload(0x40)\n  dup1\n  0x40\n  add\n  0x40\n  mstore\n  dup1\n  0x06\n  dup2\n  mstore\n  0x20\n  add\n  0x6e6f626f64790000000000000000000000000000000000000000000000000000\n  dup2\n  mstore\n  pop\n  0x00\n  swap1\n  dup1\n  mload\n  swap1\n  0x20\n  add\n  swap1\n  tag_1\n  swap3\n  swap2\n  swap1\n  tag_2\n  jump\t// in\ntag_1:\n  pop\n    /* \"study-token/DemoA.sol\":100:359  contract DemoA {... */\n  callvalue\n  dup1\n  iszero\n  tag_3\n  jumpi\n  0x00\n  dup1\n  revert\ntag_3:\n  pop\n  jump(tag_4)\ntag_2:\n  dup3\n  dup1\n  sload\n  tag_5\n  swap1\n  tag_6\n  jump\t// in\ntag_5:\n  swap1\n  0x00\n  mstore\n  keccak256(0x00, 0x20)\n  swap1\n  0x1f\n  add\n  0x20\n  swap1\n  div\n  dup2\n  add\n  swap3\n  dup3\n  tag_8\n  jumpi\n  0x00\n  dup6\n  sstore\n  jump(tag_7)\ntag_8:\n  dup3\n  0x1f\n  lt\n  tag_9\n  jumpi\n  dup1\n  mload\n  not(0xff)\n  and\n  dup4\n  dup1\n  add\n  or\n  dup6\n  sstore\n  jump(tag_7)\ntag_9:\n  dup3\n  dup1\n  add\n  0x01\n  add\n  dup6\n  sstore\n  dup3\n  iszero\n  tag_7\n  jumpi\n  swap2\n  dup3\n  add\ntag_10:\n  dup3\n  dup2\n  gt\n  iszero\n  tag_11\n  jumpi\n  dup3\n  mload\n  dup3\n  sstore\n  swap2\n  0x20\n  add\n  swap2\n  swap1\n  0x01\n  add\n  swap1\n  jump(tag_10)\ntag_11:\ntag_7:\n  pop\n  swap1\n  pop\n  tag_12\n  swap2\n  swap1\n  tag_13\n  jump\t// in\ntag_12:\n  pop\n  swap1\n  jump\t// out\ntag_13:\ntag_14:\n  dup1\n  dup3\n  gt\n  iszero\n  tag_15\n  jumpi\n  0x00\n  dup2\n  0x00\n  swap1\n  sstore\n  pop\n  0x01\n  add\n  jump(tag_14)\ntag_15:\n  pop\n  swap1\n  jump\t// out\n    /* \"#utility.yul\":7:187   */\ntag_16:\n    /* \"#utility.yul\":55:132   */\n  0x4e487b7100000000000000000000000000000000000000000000000000000000\n    /* \"#utility.yul\":52:53   */\n  0x00\n    /* \"#utility.yul\":45:133   */\n  mstore\n    /* \"#utility.yul\":152:156   */\n  0x22\n    /* \"#utility.yul\":149:150   */\n  0x04\n    /* \"#utility.yul\":142:157   */\n  mstore\n    /* \"#utility.yul\":176:180   */\n  0x24\n    /* \"#utility.yul\":173:174   */\n  0x00\n    /* \"#utility.yul\":166:181   */\n  revert\n    /* \"#utility.yul\":193:513   */\ntag_6:\n    /* \"#utility.yul\":237:243   */\n  0x00\n    /* \"#utility.yul\":274:275   */\n  0x02\n    /* \"#utility.yul\":268:272   */\n  dup3\n    /* \"#utility.yul\":264:276   */\n  div\n    /* \"#utility.yul\":254:276   */\n  swap1\n  pop\n    /* \"#utility.yul\":321:322   */\n  0x01\n    /* \"#utility.yul\":315:319   */\n  dup3\n    /* \"#utility.yul\":311:323   */\n  and\n    /* \"#utility.yul\":342:360   */\n  dup1\n    /* \"#utility.yul\":332:413   */\n  tag_20\n  jumpi\n    /* \"#utility.yul\":398:402   */\n  0x7f\n    /* \"#utility.yul\":390:396   */\n  dup3\n    /* \"#utility.yul\":386:403   */\n  and\n    /* \"#utility.yul\":376:403   */\n  swap2\n  pop\n    /* \"#utility.yul\":332:413   */\ntag_20:\n    /* \"#utility.yul\":460:462   */\n  0x20\n    /* \"#utility.yul\":452:458   */\n  dup3\n    /* \"#utility.yul\":449:463   */\n  lt\n    /* \"#utility.yul\":429:447   */\n  dup2\n    /* \"#utility.yul\":426:464   */\n  sub\n    /* \"#utility.yul\":423:507   */\n  tag_21\n  jumpi\n    /* \"#utility.yul\":479:497   */\n  tag_22\n  tag_16\n  jump\t// in\ntag_22:\n    /* \"#utility.yul\":423:507   */\ntag_21:\n    /* \"#utility.yul\":244:513   */\n  pop\n    /* \"#utility.yul\":193:513   */\n  swap2\n  swap1\n  pop\n  jump\t// out\n    /* \"study-token/DemoA.sol\":100:359  contract DemoA {... */\ntag_4:\n  dataSize(sub_0)\n  dup1\n  dataOffset(sub_0)\n  0x00\n  codecopy\n  0x00\n  return\nstop\n\nsub_0: assembly {\n        /* \"study-token/DemoA.sol\":100:359  contract DemoA {... */\n      mstore(0x40, 0x80)\n      callvalue\n      dup1\n      iszero\n      tag_1\n      jumpi\n      0x00\n      dup1\n      revert\n    tag_1:\n      pop\n      jumpi(tag_2, lt(calldatasize, 0x04))\n      shr(0xe0, calldataload(0x00))\n      dup1\n      0x17d7de7c\n      eq\n      tag_3\n      jumpi\n      dup1\n      0xc47f0027\n      eq\n      tag_4\n      jumpi\n    tag_2:\n      0x00\n      dup1\n      revert\n        /* \"study-token/DemoA.sol\":237:356  function getName() public returns(string memory, string memory, string memory) {... */\n    tag_3:\n      tag_5\n      tag_6\n      jump\t// in\n    tag_5:\n      mload(0x40)\n      tag_7\n      swap4\n      swap3\n      swap2\n      swap1\n      tag_8\n      jump\t// in\n    tag_7:\n      mload(0x40)\n      dup1\n      swap2\n      sub\n      swap1\n      return\n        /* \"study-token/DemoA.sol\":153:229  function setName(string memory _name) public {... */\n    tag_4:\n      tag_9\n      0x04\n      dup1\n      calldatasize\n      sub\n      dup2\n      add\n      swap1\n      tag_10\n      swap2\n      swap1\n      tag_11\n      jump\t// in\n    tag_10:\n      tag_12\n      jump\t// in\n    tag_9:\n      stop\n        /* \"study-token/DemoA.sol\":237:356  function getName() public returns(string memory, string memory, string memory) {... */\n    tag_6:\n        /* \"study-token/DemoA.sol\":271:284  string memory */\n      0x60\n        /* \"study-token/DemoA.sol\":286:299  string memory */\n      dup1\n        /* \"study-token/DemoA.sol\":301:314  string memory */\n      0x60\n        /* \"study-token/DemoA.sol\":327:334  DemoB b */\n      0x00\n        /* \"study-token/DemoA.sol\":337:348  new DemoB() */\n      mload(0x40)\n      tag_14\n      swap1\n      tag_15\n      jump\t// in\n    tag_14:\n      mload(0x40)\n      dup1\n      swap2\n      sub\n      swap1\n      0x00\n      create\n      dup1\n      iszero\n      dup1\n      iszero\n      tag_16\n      jumpi\n      returndatasize\n      0x00\n      dup1\n      returndatacopy\n      revert(0x00, returndatasize)\n    tag_16:\n      pop\n        /* \"study-token/DemoA.sol\":327:348  DemoB b = new DemoB() */\n      swap1\n      pop\n        /* \"study-token/DemoA.sol\":316:356  {... */\n      pop\n        /* \"study-token/DemoA.sol\":237:356  function getName() public returns(string memory, string memory, string memory) {... */\n      swap1\n      swap2\n      swap3\n      jump\t// out\n        /* \"study-token/DemoA.sol\":153:229  function setName(string memory _name) public {... */\n    tag_12:\n        /* \"study-token/DemoA.sol\":216:221  _name */\n      dup1\n        /* \"study-token/DemoA.sol\":209:213  name */\n      0x00\n        /* \"study-token/DemoA.sol\":209:221  name = _name */\n      swap1\n      dup1\n      mload\n      swap1\n      0x20\n      add\n      swap1\n      tag_18\n      swap3\n      swap2\n      swap1\n      tag_19\n      jump\t// in\n    tag_18:\n      pop\n        /* \"study-token/DemoA.sol\":153:229  function setName(string memory _name) public {... */\n      pop\n      jump\t// out\n    tag_15:\n      dataSize(sub_0)\n      dup1\n      dataOffset(sub_0)\n      dup4\n      codecopy\n      add\n      swap1\n      jump\t// out\n    tag_19:\n      dup3\n      dup1\n      sload\n      tag_20\n      swap1\n      tag_21\n      jump\t// in\n    tag_20:\n      swap1\n      0x00\n      mstore\n      keccak256(0x00, 0x20)\n      swap1\n      0x1f\n      add\n      0x20\n      swap1\n      div\n      dup2\n      add\n      swap3\n      dup3\n      tag_23\n      jumpi\n      0x00\n      dup6\n      sstore\n      jump(tag_22)\n    tag_23:\n      dup3\n      0x1f\n      lt\n      tag_24\n      jumpi\n      dup1\n      mload\n      not(0xff)\n      and\n      dup4\n      dup1\n      add\n      or\n      dup6\n      sstore\n      jump(tag_22)\n    tag_24:\n      dup3\n      dup1\n      add\n      0x01\n      add\n      dup6\n      sstore\n      dup3\n      iszero\n      tag_22\n      jumpi\n      swap2\n      dup3\n      add\n    tag_25:\n      dup3\n      dup2\n      gt\n      iszero\n      tag_26\n      jumpi\n      dup3\n      mload\n      dup3\n      sstore\n      swap2\n      0x20\n      add\n      swap2\n      swap1\n      0x01\n      add\n      swap1\n      jump(tag_25)\n    tag_26:\n    tag_22:\n      pop\n      swap1\n      pop\n      tag_27\n      swap2\n      swap1\n      tag_28\n      jump\t// in\n    tag_27:\n      pop\n      swap1\n      jump\t// out\n    tag_28:\n    tag_29:\n      dup1\n      dup3\n      gt\n      iszero\n      tag_30\n      jumpi\n      0x00\n      dup2\n      0x00\n      swap1\n      sstore\n      pop\n      0x01\n      add\n      jump(tag_29)\n    tag_30:\n      pop\n      swap1\n      jump\t// out\n        /* \"#utility.yul\":7:106   */\n    tag_31:\n        /* \"#utility.yul\":59:65   */\n      0x00\n        /* \"#utility.yul\":93:98   */\n      dup2\n        /* \"#utility.yul\":87:99   */\n      mload\n        /* \"#utility.yul\":77:99   */\n      swap1\n      pop\n        /* \"#utility.yul\":7:106   */\n      swap2\n      swap1\n      pop\n      jump\t// out\n        /* \"#utility.yul\":112:281   */\n    tag_32:\n        /* \"#utility.yul\":196:207   */\n      0x00\n        /* \"#utility.yul\":230:236   */\n      dup3\n        /* \"#utility.yul\":225:228   */\n      dup3\n        /* \"#utility.yul\":218:237   */\n      mstore\n        /* \"#utility.yul\":270:274   */\n      0x20\n        /* \"#utility.yul\":265:268   */\n      dup3\n        /* \"#utility.yul\":261:275   */\n      add\n        /* \"#utility.yul\":246:275   */\n      swap1\n      pop\n        /* \"#utility.yul\":112:281   */\n      swap3\n      swap2\n      pop\n      pop\n      jump\t// out\n        /* \"#utility.yul\":287:594   */\n    tag_33:\n        /* \"#utility.yul\":355:356   */\n      0x00\n        /* \"#utility.yul\":365:478   */\n    tag_53:\n        /* \"#utility.yul\":379:385   */\n      dup4\n        /* \"#utility.yul\":376:377   */\n      dup2\n        /* \"#utility.yul\":373:386   */\n      lt\n        /* \"#utility.yul\":365:478   */\n      iszero\n      tag_55\n      jumpi\n        /* \"#utility.yul\":464:465   */\n      dup1\n        /* \"#utility.yul\":459:462   */\n      dup3\n        /* \"#utility.yul\":455:466   */\n      add\n        /* \"#utility.yul\":449:467   */\n      mload\n        /* \"#utility.yul\":445:446   */\n      dup2\n        /* \"#utility.yul\":440:443   */\n      dup5\n        /* \"#utility.yul\":436:447   */\n      add\n        /* \"#utility.yul\":429:468   */\n      mstore\n        /* \"#utility.yul\":401:403   */\n      0x20\n        /* \"#utility.yul\":398:399   */\n      dup2\n        /* \"#utility.yul\":394:404   */\n      add\n        /* \"#utility.yul\":389:404   */\n      swap1\n      pop\n        /* \"#utility.yul\":365:478   */\n      jump(tag_53)\n    tag_55:\n        /* \"#utility.yul\":496:502   */\n      dup4\n        /* \"#utility.yul\":493:494   */\n      dup2\n        /* \"#utility.yul\":490:503   */\n      gt\n        /* \"#utility.yul\":487:588   */\n      iszero\n      tag_56\n      jumpi\n        /* \"#utility.yul\":576:577   */\n      0x00\n        /* \"#utility.yul\":567:573   */\n      dup5\n        /* \"#utility.yul\":562:565   */\n      dup5\n        /* \"#utility.yul\":558:574   */\n      add\n        /* \"#utility.yul\":551:578   */\n      mstore\n        /* \"#utility.yul\":487:588   */\n    tag_56:\n        /* \"#utility.yul\":336:594   */\n      pop\n        /* \"#utility.yul\":287:594   */\n      pop\n      pop\n      pop\n      jump\t// out\n        /* \"#utility.yul\":600:702   */\n    tag_34:\n        /* \"#utility.yul\":641:647   */\n      0x00\n        /* \"#utility.yul\":692:694   */\n      0x1f\n        /* \"#utility.yul\":688:695   */\n      not\n        /* \"#utility.yul\":683:685   */\n      0x1f\n        /* \"#utility.yul\":676:681   */\n      dup4\n        /* \"#utility.yul\":672:686   */\n      add\n        /* \"#utility.yul\":668:696   */\n      and\n        /* \"#utility.yul\":658:696   */\n      swap1\n      pop\n        /* \"#utility.yul\":600:702   */\n      swap2\n      swap1\n      pop\n      jump\t// out\n        /* \"#utility.yul\":708:1072   */\n    tag_35:\n        /* \"#utility.yul\":796:799   */\n      0x00\n        /* \"#utility.yul\":824:863   */\n      tag_59\n        /* \"#utility.yul\":857:862   */\n      dup3\n        /* \"#utility.yul\":824:863   */\n      tag_31\n      jump\t// in\n    tag_59:\n        /* \"#utility.yul\":879:950   */\n      tag_60\n        /* \"#utility.yul\":943:949   */\n      dup2\n        /* \"#utility.yul\":938:941   */\n      dup6\n        /* \"#utility.yul\":879:950   */\n      tag_32\n      jump\t// in\n    tag_60:\n        /* \"#utility.yul\":872:950   */\n      swap4\n      pop\n        /* \"#utility.yul\":959:1011   */\n      tag_61\n        /* \"#utility.yul\":1004:1010   */\n      dup2\n        /* \"#utility.yul\":999:1002   */\n      dup6\n        /* \"#utility.yul\":992:996   */\n      0x20\n        /* \"#utility.yul\":985:990   */\n      dup7\n        /* \"#utility.yul\":981:997   */\n      add\n        /* \"#utility.yul\":959:1011   */\n      tag_33\n      jump\t// in\n    tag_61:\n        /* \"#utility.yul\":1036:1065   */\n      tag_62\n        /* \"#utility.yul\":1058:1064   */\n      dup2\n        /* \"#utility.yul\":1036:1065   */\n      tag_34\n      jump\t// in\n    tag_62:\n        /* \"#utility.yul\":1031:1034   */\n      dup5\n        /* \"#utility.yul\":1027:1066   */\n      add\n        /* \"#utility.yul\":1020:1066   */\n      swap2\n      pop\n        /* \"#utility.yul\":800:1072   */\n      pop\n        /* \"#utility.yul\":708:1072   */\n      swap3\n      swap2\n      pop\n      pop\n      jump\t// out\n        /* \"#utility.yul\":1078:1793   */\n    tag_8:\n        /* \"#utility.yul\":1287:1291   */\n      0x00\n        /* \"#utility.yul\":1325:1327   */\n      0x60\n        /* \"#utility.yul\":1314:1323   */\n      dup3\n        /* \"#utility.yul\":1310:1328   */\n      add\n        /* \"#utility.yul\":1302:1328   */\n      swap1\n      pop\n        /* \"#utility.yul\":1374:1383   */\n      dup2\n        /* \"#utility.yul\":1368:1372   */\n      dup2\n        /* \"#utility.yul\":1364:1384   */\n      sub\n        /* \"#utility.yul\":1360:1361   */\n      0x00\n        /* \"#utility.yul\":1349:1358   */\n      dup4\n        /* \"#utility.yul\":1345:1362   */\n      add\n        /* \"#utility.yul\":1338:1385   */\n      mstore\n        /* \"#utility.yul\":1402:1480   */\n      tag_64\n        /* \"#utility.yul\":1475:1479   */\n      dup2\n        /* \"#utility.yul\":1466:1472   */\n      dup7\n        /* \"#utility.yul\":1402:1480   */\n      tag_35\n      jump\t// in\n    tag_64:\n        /* \"#utility.yul\":1394:1480   */\n      swap1\n      pop\n        /* \"#utility.yul\":1527:1536   */\n      dup2\n        /* \"#utility.yul\":1521:1525   */\n      dup2\n        /* \"#utility.yul\":1517:1537   */\n      sub\n        /* \"#utility.yul\":1512:1514   */\n      0x20\n        /* \"#utility.yul\":1501:1510   */\n      dup4\n        /* \"#utility.yul\":1497:1515   */\n      add\n        /* \"#utility.yul\":1490:1538   */\n      mstore\n        /* \"#utility.yul\":1555:1633   */\n      tag_65\n        /* \"#utility.yul\":1628:1632   */\n      dup2\n        /* \"#utility.yul\":1619:1625   */\n      dup6\n        /* \"#utility.yul\":1555:1633   */\n      tag_35\n      jump\t// in\n    tag_65:\n        /* \"#utility.yul\":1547:1633   */\n      swap1\n      pop\n        /* \"#utility.yul\":1680:1689   */\n      dup2\n        /* \"#utility.yul\":1674:1678   */\n      dup2\n        /* \"#utility.yul\":1670:1690   */\n      sub\n        /* \"#utility.yul\":1665:1667   */\n      0x40\n        /* \"#utility.yul\":1654:1663   */\n      dup4\n        /* \"#utility.yul\":1650:1668   */\n      add\n        /* \"#utility.yul\":1643:1691   */\n      mstore\n        /* \"#utility.yul\":1708:1786   */\n      tag_66\n        /* \"#utility.yul\":1781:1785   */\n      dup2\n        /* \"#utility.yul\":1772:1778   */\n      dup5\n        /* \"#utility.yul\":1708:1786   */\n      tag_35\n      jump\t// in\n    tag_66:\n        /* \"#utility.yul\":1700:1786   */\n      swap1\n      pop\n        /* \"#utility.yul\":1078:1793   */\n      swap5\n      swap4\n      pop\n      pop\n      pop\n      pop\n      jump\t// out\n        /* \"#utility.yul\":1799:1874   */\n    tag_36:\n        /* \"#utility.yul\":1832:1838   */\n      0x00\n        /* \"#utility.yul\":1865:1867   */\n      0x40\n        /* \"#utility.yul\":1859:1868   */\n      mload\n        /* \"#utility.yul\":1849:1868   */\n      swap1\n      pop\n        /* \"#utility.yul\":1799:1874   */\n      swap1\n      jump\t// out\n        /* \"#utility.yul\":1880:1997   */\n    tag_37:\n        /* \"#utility.yul\":1989:1990   */\n      0x00\n        /* \"#utility.yul\":1986:1987   */\n      dup1\n        /* \"#utility.yul\":1979:1991   */\n      revert\n        /* \"#utility.yul\":2003:2120   */\n    tag_38:\n        /* \"#utility.yul\":2112:2113   */\n      0x00\n        /* \"#utility.yul\":2109:2110   */\n      dup1\n        /* \"#utility.yul\":2102:2114   */\n      revert\n        /* \"#utility.yul\":2126:2243   */\n    tag_39:\n        /* \"#utility.yul\":2235:2236   */\n      0x00\n        /* \"#utility.yul\":2232:2233   */\n      dup1\n        /* \"#utility.yul\":2225:2237   */\n      revert\n        /* \"#utility.yul\":2249:2366   */\n    tag_40:\n        /* \"#utility.yul\":2358:2359   */\n      0x00\n        /* \"#utility.yul\":2355:2356   */\n      dup1\n        /* \"#utility.yul\":2348:2360   */\n      revert\n        /* \"#utility.yul\":2372:2552   */\n    tag_41:\n        /* \"#utility.yul\":2420:2497   */\n      0x4e487b7100000000000000000000000000000000000000000000000000000000\n        /* \"#utility.yul\":2417:2418   */\n      0x00\n        /* \"#utility.yul\":2410:2498   */\n      mstore\n        /* \"#utility.yul\":2517:2521   */\n      0x41\n        /* \"#utility.yul\":2514:2515   */\n      0x04\n        /* \"#utility.yul\":2507:2522   */\n      mstore\n        /* \"#utility.yul\":2541:2545   */\n      0x24\n        /* \"#utility.yul\":2538:2539   */\n      0x00\n        /* \"#utility.yul\":2531:2546   */\n      revert\n        /* \"#utility.yul\":2558:2839   */\n    tag_42:\n        /* \"#utility.yul\":2641:2668   */\n      tag_74\n        /* \"#utility.yul\":2663:2667   */\n      dup3\n        /* \"#utility.yul\":2641:2668   */\n      tag_34\n      jump\t// in\n    tag_74:\n        /* \"#utility.yul\":2633:2639   */\n      dup2\n        /* \"#utility.yul\":2629:2669   */\n      add\n        /* \"#utility.yul\":2771:2777   */\n      dup2\n        /* \"#utility.yul\":2759:2769   */\n      dup2\n        /* \"#utility.yul\":2756:2778   */\n      lt\n        /* \"#utility.yul\":2735:2753   */\n      0xffffffffffffffff\n        /* \"#utility.yul\":2723:2733   */\n      dup3\n        /* \"#utility.yul\":2720:2754   */\n      gt\n        /* \"#utility.yul\":2717:2779   */\n      or\n        /* \"#utility.yul\":2714:2802   */\n      iszero\n      tag_75\n      jumpi\n        /* \"#utility.yul\":2782:2800   */\n      tag_76\n      tag_41\n      jump\t// in\n    tag_76:\n        /* \"#utility.yul\":2714:2802   */\n    tag_75:\n        /* \"#utility.yul\":2822:2832   */\n      dup1\n        /* \"#utility.yul\":2818:2820   */\n      0x40\n        /* \"#utility.yul\":2811:2833   */\n      mstore\n        /* \"#utility.yul\":2601:2839   */\n      pop\n        /* \"#utility.yul\":2558:2839   */\n      pop\n      pop\n      jump\t// out\n        /* \"#utility.yul\":2845:2974   */\n    tag_43:\n        /* \"#utility.yul\":2879:2885   */\n      0x00\n        /* \"#utility.yul\":2906:2926   */\n      tag_78\n      tag_36\n      jump\t// in\n    tag_78:\n        /* \"#utility.yul\":2896:2926   */\n      swap1\n      pop\n        /* \"#utility.yul\":2935:2968   */\n      tag_79\n        /* \"#utility.yul\":2963:2967   */\n      dup3\n        /* \"#utility.yul\":2955:2961   */\n      dup3\n        /* \"#utility.yul\":2935:2968   */\n      tag_42\n      jump\t// in\n    tag_79:\n        /* \"#utility.yul\":2845:2974   */\n      swap2\n      swap1\n      pop\n      jump\t// out\n        /* \"#utility.yul\":2980:3288   */\n    tag_44:\n        /* \"#utility.yul\":3042:3046   */\n      0x00\n        /* \"#utility.yul\":3132:3150   */\n      0xffffffffffffffff\n        /* \"#utility.yul\":3124:3130   */\n      dup3\n        /* \"#utility.yul\":3121:3151   */\n      gt\n        /* \"#utility.yul\":3118:3174   */\n      iszero\n      tag_81\n      jumpi\n        /* \"#utility.yul\":3154:3172   */\n      tag_82\n      tag_41\n      jump\t// in\n    tag_82:\n        /* \"#utility.yul\":3118:3174   */\n    tag_81:\n        /* \"#utility.yul\":3192:3221   */\n      tag_83\n        /* \"#utility.yul\":3214:3220   */\n      dup3\n        /* \"#utility.yul\":3192:3221   */\n      tag_34\n      jump\t// in\n    tag_83:\n        /* \"#utility.yul\":3184:3221   */\n      swap1\n      pop\n        /* \"#utility.yul\":3276:3280   */\n      0x20\n        /* \"#utility.yul\":3270:3274   */\n      dup2\n        /* \"#utility.yul\":3266:3281   */\n      add\n        /* \"#utility.yul\":3258:3281   */\n      swap1\n      pop\n        /* \"#utility.yul\":2980:3288   */\n      swap2\n      swap1\n      pop\n      jump\t// out\n        /* \"#utility.yul\":3294:3448   */\n    tag_45:\n        /* \"#utility.yul\":3378:3384   */\n      dup3\n        /* \"#utility.yul\":3373:3376   */\n      dup2\n        /* \"#utility.yul\":3368:3371   */\n      dup4\n        /* \"#utility.yul\":3355:3385   */\n      calldatacopy\n        /* \"#utility.yul\":3440:3441   */\n      0x00\n        /* \"#utility.yul\":3431:3437   */\n      dup4\n        /* \"#utility.yul\":3426:3429   */\n      dup4\n        /* \"#utility.yul\":3422:3438   */\n      add\n        /* \"#utility.yul\":3415:3442   */\n      mstore\n        /* \"#utility.yul\":3294:3448   */\n      pop\n      pop\n      pop\n      jump\t// out\n        /* \"#utility.yul\":3454:3866   */\n    tag_46:\n        /* \"#utility.yul\":3532:3537   */\n      0x00\n        /* \"#utility.yul\":3557:3623   */\n      tag_86\n        /* \"#utility.yul\":3573:3622   */\n      tag_87\n        /* \"#utility.yul\":3615:3621   */\n      dup5\n        /* \"#utility.yul\":3573:3622   */\n      tag_44\n      jump\t// in\n    tag_87:\n        /* \"#utility.yul\":3557:3623   */\n      tag_43\n      jump\t// in\n    tag_86:\n        /* \"#utility.yul\":3548:3623   */\n      swap1\n      pop\n        /* \"#utility.yul\":3646:3652   */\n      dup3\n        /* \"#utility.yul\":3639:3644   */\n      dup2\n        /* \"#utility.yul\":3632:3653   */\n      mstore\n        /* \"#utility.yul\":3684:3688   */\n      0x20\n        /* \"#utility.yul\":3677:3682   */\n      dup2\n        /* \"#utility.yul\":3673:3689   */\n      add\n        /* \"#utility.yul\":3722:3725   */\n      dup5\n        /* \"#utility.yul\":3713:3719   */\n      dup5\n        /* \"#utility.yul\":3708:3711   */\n      dup5\n        /* \"#utility.yul\":3704:3720   */\n      add\n        /* \"#utility.yul\":3701:3726   */\n      gt\n        /* \"#utility.yul\":3698:3810   */\n      iszero\n      tag_88\n      jumpi\n        /* \"#utility.yul\":3729:3808   */\n      tag_89\n      tag_40\n      jump\t// in\n    tag_89:\n        /* \"#utility.yul\":3698:3810   */\n    tag_88:\n        /* \"#utility.yul\":3819:3860   */\n      tag_90\n        /* \"#utility.yul\":3853:3859   */\n      dup5\n        /* \"#utility.yul\":3848:3851   */\n      dup3\n        /* \"#utility.yul\":3843:3846   */\n      dup6\n        /* \"#utility.yul\":3819:3860   */\n      tag_45\n      jump\t// in\n    tag_90:\n        /* \"#utility.yul\":3538:3866   */\n      pop\n        /* \"#utility.yul\":3454:3866   */\n      swap4\n      swap3\n      pop\n      pop\n      pop\n      jump\t// out\n        /* \"#utility.yul\":3886:4226   */\n    tag_47:\n        /* \"#utility.yul\":3942:3947   */\n      0x00\n        /* \"#utility.yul\":3991:3994   */\n      dup3\n        /* \"#utility.yul\":3984:3988   */\n      0x1f\n        /* \"#utility.yul\":3976:3982   */\n      dup4\n        /* \"#utility.yul\":3972:3989   */\n      add\n        /* \"#utility.yul\":3968:3995   */\n      slt\n        /* \"#utility.yul\":3958:4080   */\n      tag_92\n      jumpi\n        /* \"#utility.yul\":3999:4078   */\n      tag_93\n      tag_39\n      jump\t// in\n    tag_93:\n        /* \"#utility.yul\":3958:4080   */\n    tag_92:\n        /* \"#utility.yul\":4116:4122   */\n      dup2\n        /* \"#utility.yul\":4103:4123   */\n      calldataload\n        /* \"#utility.yul\":4141:4220   */\n      tag_94\n        /* \"#utility.yul\":4216:4219   */\n      dup5\n        /* \"#utility.yul\":4208:4214   */\n      dup3\n        /* \"#utility.yul\":4201:4205   */\n      0x20\n        /* \"#utility.yul\":4193:4199   */\n      dup7\n        /* \"#utility.yul\":4189:4206   */\n      add\n        /* \"#utility.yul\":4141:4220   */\n      tag_46\n      jump\t// in\n    tag_94:\n        /* \"#utility.yul\":4132:4220   */\n      swap2\n      pop\n        /* \"#utility.yul\":3948:4226   */\n      pop\n        /* \"#utility.yul\":3886:4226   */\n      swap3\n      swap2\n      pop\n      pop\n      jump\t// out\n        /* \"#utility.yul\":4232:4741   */\n    tag_11:\n        /* \"#utility.yul\":4301:4307   */\n      0x00\n        /* \"#utility.yul\":4350:4352   */\n      0x20\n        /* \"#utility.yul\":4338:4347   */\n      dup3\n        /* \"#utility.yul\":4329:4336   */\n      dup5\n        /* \"#utility.yul\":4325:4348   */\n      sub\n        /* \"#utility.yul\":4321:4353   */\n      slt\n        /* \"#utility.yul\":4318:4437   */\n      iszero\n      tag_96\n      jumpi\n        /* \"#utility.yul\":4356:4435   */\n      tag_97\n      tag_37\n      jump\t// in\n    tag_97:\n        /* \"#utility.yul\":4318:4437   */\n    tag_96:\n        /* \"#utility.yul\":4504:4505   */\n      0x00\n        /* \"#utility.yul\":4493:4502   */\n      dup3\n        /* \"#utility.yul\":4489:4506   */\n      add\n        /* \"#utility.yul\":4476:4507   */\n      calldataload\n        /* \"#utility.yul\":4534:4552   */\n      0xffffffffffffffff\n        /* \"#utility.yul\":4526:4532   */\n      dup2\n        /* \"#utility.yul\":4523:4553   */\n      gt\n        /* \"#utility.yul\":4520:4637   */\n      iszero\n      tag_98\n      jumpi\n        /* \"#utility.yul\":4556:4635   */\n      tag_99\n      tag_38\n      jump\t// in\n    tag_99:\n        /* \"#utility.yul\":4520:4637   */\n    tag_98:\n        /* \"#utility.yul\":4661:4724   */\n      tag_100\n        /* \"#utility.yul\":4716:4723   */\n      dup5\n        /* \"#utility.yul\":4707:4713   */\n      dup3\n        /* \"#utility.yul\":4696:4705   */\n      dup6\n        /* \"#utility.yul\":4692:4714   */\n      add\n        /* \"#utility.yul\":4661:4724   */\n      tag_47\n      jump\t// in\n    tag_100:\n        /* \"#utility.yul\":4651:4724   */\n      swap2\n      pop\n        /* \"#utility.yul\":4447:4734   */\n      pop\n        /* \"#utility.yul\":4232:4741   */\n      swap3\n      swap2\n      pop\n      pop\n      jump\t// out\n        /* \"#utility.yul\":4747:4927   */\n    tag_48:\n        /* \"#utility.yul\":4795:4872   */\n      0x4e487b7100000000000000000000000000000000000000000000000000000000\n        /* \"#utility.yul\":4792:4793   */\n      0x00\n        /* \"#utility.yul\":4785:4873   */\n      mstore\n        /* \"#utility.yul\":4892:4896   */\n      0x22\n        /* \"#utility.yul\":4889:4890   */\n      0x04\n        /* \"#utility.yul\":4882:4897   */\n      mstore\n        /* \"#utility.yul\":4916:4920   */\n      0x24\n        /* \"#utility.yul\":4913:4914   */\n      0x00\n        /* \"#utility.yul\":4906:4921   */\n      revert\n        /* \"#utility.yul\":4933:5253   */\n    tag_21:\n        /* \"#utility.yul\":4977:4983   */\n      0x00\n        /* \"#utility.yul\":5014:5015   */\n      0x02\n        /* \"#utility.yul\":5008:5012   */\n      dup3\n        /* \"#utility.yul\":5004:5016   */\n      div\n        /* \"#utility.yul\":4994:5016   */\n      swap1\n      pop\n        /* \"#utility.yul\":5061:5062   */\n      0x01\n        /* \"#utility.yul\":5055:5059   */\n      dup3\n        /* \"#utility.yul\":5051:5063   */\n      and\n        /* \"#utility.yul\":5082:5100   */\n      dup1\n        /* \"#utility.yul\":5072:5153   */\n      tag_103\n      jumpi\n        /* \"#utility.yul\":5138:5142   */\n      0x7f\n        /* \"#utility.yul\":5130:5136   */\n      dup3\n        /* \"#utility.yul\":5126:5143   */\n      and\n        /* \"#utility.yul\":5116:5143   */\n      swap2\n      pop\n        /* \"#utility.yul\":5072:5153   */\n    tag_103:\n        /* \"#utility.yul\":5200:5202   */\n      0x20\n        /* \"#utility.yul\":5192:5198   */\n      dup3\n        /* \"#utility.yul\":5189:5203   */\n      lt\n        /* \"#utility.yul\":5169:5187   */\n      dup2\n        /* \"#utility.yul\":5166:5204   */\n      sub\n        /* \"#utility.yul\":5163:5247   */\n      tag_104\n      jumpi\n        /* \"#utility.yul\":5219:5237   */\n      tag_105\n      tag_48\n      jump\t// in\n    tag_105:\n        /* \"#utility.yul\":5163:5247   */\n    tag_104:\n        /* \"#utility.yul\":4984:5253   */\n      pop\n        /* \"#utility.yul\":4933:5253   */\n      swap2\n      swap1\n      pop\n      jump\t// out\n    stop\n\n    sub_0: assembly {\n            /* \"study-token/DemoB.sol\":75:235  contract DemoB {... */\n          mstore(0x40, 0x80)\n            /* \"study-token/DemoB.sol\":97:125  string secondName = \"wangwu\" */\n          mload(0x40)\n          dup1\n          0x40\n          add\n          0x40\n          mstore\n          dup1\n          0x06\n          dup2\n          mstore\n          0x20\n          add\n          0x77616e6777750000000000000000000000000000000000000000000000000000\n          dup2\n          mstore\n          pop\n          0x00\n          swap1\n          dup1\n          mload\n          swap1\n          0x20\n          add\n          swap1\n          tag_1\n          swap3\n          swap2\n          swap1\n          tag_2\n          jump\t// in\n        tag_1:\n          pop\n            /* \"study-token/DemoB.sol\":75:235  contract DemoB {... */\n          callvalue\n          dup1\n          iszero\n          tag_3\n          jumpi\n          0x00\n          dup1\n          revert\n        tag_3:\n          pop\n          jump(tag_4)\n        tag_2:\n          dup3\n          dup1\n          sload\n          tag_5\n          swap1\n          tag_6\n          jump\t// in\n        tag_5:\n          swap1\n          0x00\n          mstore\n          keccak256(0x00, 0x20)\n          swap1\n          0x1f\n          add\n          0x20\n          swap1\n          div\n          dup2\n          add\n          swap3\n          dup3\n          tag_8\n          jumpi\n          0x00\n          dup6\n          sstore\n          jump(tag_7)\n        tag_8:\n          dup3\n          0x1f\n          lt\n          tag_9\n          jumpi\n          dup1\n          mload\n          not(0xff)\n          and\n          dup4\n          dup1\n          add\n          or\n          dup6\n          sstore\n          jump(tag_7)\n        tag_9:\n          dup3\n          dup1\n          add\n          0x01\n          add\n          dup6\n          sstore\n          dup3\n          iszero\n          tag_7\n          jumpi\n          swap2\n          dup3\n          add\n        tag_10:\n          dup3\n          dup2\n          gt\n          iszero\n          tag_11\n          jumpi\n          dup3\n          mload\n          dup3\n          sstore\n          swap2\n          0x20\n          add\n          swap2\n          swap1\n          0x01\n          add\n          swap1\n          jump(tag_10)\n        tag_11:\n        tag_7:\n          pop\n          swap1\n          pop\n          tag_12\n          swap2\n          swap1\n          tag_13\n          jump\t// in\n        tag_12:\n          pop\n          swap1\n          jump\t// out\n        tag_13:\n        tag_14:\n          dup1\n          dup3\n          gt\n          iszero\n          tag_15\n          jumpi\n          0x00\n          dup2\n          0x00\n          swap1\n          sstore\n          pop\n          0x01\n          add\n          jump(tag_14)\n        tag_15:\n          pop\n          swap1\n          jump\t// out\n            /* \"#utility.yul\":7:187   */\n        tag_16:\n            /* \"#utility.yul\":55:132   */\n          0x4e487b7100000000000000000000000000000000000000000000000000000000\n            /* \"#utility.yul\":52:53   */\n          0x00\n            /* \"#utility.yul\":45:133   */\n          mstore\n            /* \"#utility.yul\":152:156   */\n          0x22\n            /* \"#utility.yul\":149:150   */\n          0x04\n            /* \"#utility.yul\":142:157   */\n          mstore\n            /* \"#utility.yul\":176:180   */\n          0x24\n            /* \"#utility.yul\":173:174   */\n          0x00\n            /* \"#utility.yul\":166:181   */\n          revert\n            /* \"#utility.yul\":193:513   */\n        tag_6:\n            /* \"#utility.yul\":237:243   */\n          0x00\n            /* \"#utility.yul\":274:275   */\n          0x02\n            /* \"#utility.yul\":268:272   */\n          dup3\n            /* \"#utility.yul\":264:276   */\n          div\n            /* \"#utility.yul\":254:276   */\n          swap1\n          pop\n            /* \"#utility.yul\":321:322   */\n          0x01\n            /* \"#utility.yul\":315:319   */\n          dup3\n            /* \"#utility.yul\":311:323   */\n          and\n            /* \"#utility.yul\":342:360   */\n          dup1\n            /* \"#utility.yul\":332:413   */\n          tag_20\n          jumpi\n            /* \"#utility.yul\":398:402   */\n          0x7f\n            /* \"#utility.yul\":390:396   */\n          dup3\n            /* \"#utility.yul\":386:403   */\n          and\n            /* \"#utility.yul\":376:403   */\n          swap2\n          pop\n            /* \"#utility.yul\":332:413   */\n        tag_20:\n            /* \"#utility.yul\":460:462   */\n          0x20\n            /* \"#utility.yul\":452:458   */\n          dup3\n            /* \"#utility.yul\":449:463   */\n          lt\n            /* \"#utility.yul\":429:447   */\n          dup2\n            /* \"#utility.yul\":426:464   */\n          sub\n            /* \"#utility.yul\":423:507   */\n          tag_21\n          jumpi\n            /* \"#utility.yul\":479:497   */\n          tag_22\n          tag_16\n          jump\t// in\n        tag_22:\n            /* \"#utility.yul\":423:507   */\n        tag_21:\n            /* \"#utility.yul\":244:513   */\n          pop\n            /* \"#utility.yul\":193:513   */\n          swap2\n          swap1\n          pop\n          jump\t// out\n            /* \"study-token/DemoB.sol\":75:235  contract DemoB {... */\n        tag_4:\n          dataSize(sub_0)\n          dup1\n          dataOffset(sub_0)\n          0x00\n          codecopy\n          0x00\n          return\n        stop\n\n        sub_0: assembly {\n                /* \"study-token/DemoB.sol\":75:235  contract DemoB {... */\n              mstore(0x40, 0x80)\n              callvalue\n              dup1\n              iszero\n              tag_1\n              jumpi\n              0x00\n              dup1\n              revert\n            tag_1:\n              pop\n              jumpi(tag_2, lt(calldatasize, 0x04))\n              shr(0xe0, calldataload(0x00))\n              dup1\n              0xabff03f7\n              eq\n              tag_3\n              jumpi\n            tag_2:\n              0x00\n              dup1\n              revert\n                /* \"study-token/DemoB.sol\":134:231  function getSecondName() public view returns(string memory ) {... */\n            tag_3:\n              tag_4\n              tag_5\n              jump\t// in\n            tag_4:\n              mload(0x40)\n              tag_6\n              swap2\n              swap1\n              tag_7\n              jump\t// in\n            tag_6:\n              mload(0x40)\n              dup1\n              swap2\n              sub\n              swap1\n              return\n            tag_5:\n                /* \"study-token/DemoB.sol\":179:192  string memory */\n              0x60\n                /* \"study-token/DemoB.sol\":213:223  secondName */\n              0x00\n                /* \"study-token/DemoB.sol\":206:223  return secondName */\n              dup1\n              sload\n              tag_9\n              swap1\n              tag_10\n              jump\t// in\n            tag_9:\n              dup1\n              0x1f\n              add\n              0x20\n              dup1\n              swap2\n              div\n              mul\n              0x20\n              add\n              mload(0x40)\n              swap1\n              dup2\n              add\n              0x40\n              mstore\n              dup1\n              swap3\n              swap2\n              swap1\n              dup2\n              dup2\n              mstore\n              0x20\n              add\n              dup3\n              dup1\n              sload\n              tag_11\n              swap1\n              tag_10\n              jump\t// in\n            tag_11:\n              dup1\n              iszero\n              tag_12\n              jumpi\n              dup1\n              0x1f\n              lt\n              tag_13\n              jumpi\n              0x0100\n              dup1\n              dup4\n              sload\n              div\n              mul\n              dup4\n              mstore\n              swap2\n              0x20\n              add\n              swap2\n              jump(tag_12)\n            tag_13:\n              dup3\n              add\n              swap2\n              swap1\n              0x00\n              mstore\n              keccak256(0x00, 0x20)\n              swap1\n            tag_14:\n              dup2\n              sload\n              dup2\n              mstore\n              swap1\n              0x01\n              add\n              swap1\n              0x20\n              add\n              dup1\n              dup4\n              gt\n              tag_14\n              jumpi\n              dup3\n              swap1\n              sub\n              0x1f\n              and\n              dup3\n              add\n              swap2\n            tag_12:\n              pop\n              pop\n              pop\n              pop\n              pop\n              swap1\n              pop\n                /* \"study-token/DemoB.sol\":134:231  function getSecondName() public view returns(string memory ) {... */\n              swap1\n              jump\t// out\n                /* \"#utility.yul\":7:106   */\n            tag_15:\n                /* \"#utility.yul\":59:65   */\n              0x00\n                /* \"#utility.yul\":93:98   */\n              dup2\n                /* \"#utility.yul\":87:99   */\n              mload\n                /* \"#utility.yul\":77:99   */\n              swap1\n              pop\n                /* \"#utility.yul\":7:106   */\n              swap2\n              swap1\n              pop\n              jump\t// out\n                /* \"#utility.yul\":112:281   */\n            tag_16:\n                /* \"#utility.yul\":196:207   */\n              0x00\n                /* \"#utility.yul\":230:236   */\n              dup3\n                /* \"#utility.yul\":225:228   */\n              dup3\n                /* \"#utility.yul\":218:237   */\n              mstore\n                /* \"#utility.yul\":270:274   */\n              0x20\n                /* \"#utility.yul\":265:268   */\n              dup3\n                /* \"#utility.yul\":261:275   */\n              add\n                /* \"#utility.yul\":246:275   */\n              swap1\n              pop\n                /* \"#utility.yul\":112:281   */\n              swap3\n              swap2\n              pop\n              pop\n              jump\t// out\n                /* \"#utility.yul\":287:594   */\n            tag_17:\n                /* \"#utility.yul\":355:356   */\n              0x00\n                /* \"#utility.yul\":365:478   */\n            tag_25:\n                /* \"#utility.yul\":379:385   */\n              dup4\n                /* \"#utility.yul\":376:377   */\n              dup2\n                /* \"#utility.yul\":373:386   */\n              lt\n                /* \"#utility.yul\":365:478   */\n              iszero\n              tag_27\n              jumpi\n                /* \"#utility.yul\":464:465   */\n              dup1\n                /* \"#utility.yul\":459:462   */\n              dup3\n                /* \"#utility.yul\":455:466   */\n              add\n                /* \"#utility.yul\":449:467   */\n              mload\n                /* \"#utility.yul\":445:446   */\n              dup2\n                /* \"#utility.yul\":440:443   */\n              dup5\n                /* \"#utility.yul\":436:447   */\n              add\n                /* \"#utility.yul\":429:468   */\n              mstore\n                /* \"#utility.yul\":401:403   */\n              0x20\n                /* \"#utility.yul\":398:399   */\n              dup2\n                /* \"#utility.yul\":394:404   */\n              add\n                /* \"#utility.yul\":389:404   */\n              swap1\n              pop\n                /* \"#utility.yul\":365:478   */\n              jump(tag_25)\n            tag_27:\n                /* \"#utility.yul\":496:502   */\n              dup4\n                /* \"#utility.yul\":493:494   */\n              dup2\n                /* \"#utility.yul\":490:503   */\n              gt\n                /* \"#utility.yul\":487:588   */\n              iszero\n              tag_28\n              jumpi\n                /* \"#utility.yul\":576:577   */\n              0x00\n                /* \"#utility.yul\":567:573   */\n              dup5\n                /* \"#utility.yul\":562:565   */\n              dup5\n                /* \"#utility.yul\":558:574   */\n              add\n                /* \"#utility.yul\":551:578   */\n              mstore\n                /* \"#utility.yul\":487:588   */\n            tag_28:\n                /* \"#utility.yul\":336:594   */\n              pop\n                /* \"#utility.yul\":287:594   */\n              pop\n              pop\n              pop\n              jump\t// out\n                /* \"#utility.yul\":600:702   */\n            tag_18:\n                /* \"#utility.yul\":641:647   */\n              0x00\n                /* \"#utility.yul\":692:694   */\n              0x1f\n                /* \"#utility.yul\":688:695   */\n              not\n                /* \"#utility.yul\":683:685   */\n              0x1f\n                /* \"#utility.yul\":676:681   */\n              dup4\n                /* \"#utility.yul\":672:686   */\n              add\n                /* \"#utility.yul\":668:696   */\n              and\n                /* \"#utility.yul\":658:696   */\n              swap1\n              pop\n                /* \"#utility.yul\":600:702   */\n              swap2\n              swap1\n              pop\n              jump\t// out\n                /* \"#utility.yul\":708:1072   */\n            tag_19:\n                /* \"#utility.yul\":796:799   */\n              0x00\n                /* \"#utility.yul\":824:863   */\n              tag_31\n                /* \"#utility.yul\":857:862   */\n              dup3\n                /* \"#utility.yul\":824:863   */\n              tag_15\n              jump\t// in\n            tag_31:\n                /* \"#utility.yul\":879:950   */\n              tag_32\n                /* \"#utility.yul\":943:949   */\n              dup2\n                /* \"#utility.yul\":938:941   */\n              dup6\n                /* \"#utility.yul\":879:950   */\n              tag_16\n              jump\t// in\n            tag_32:\n                /* \"#utility.yul\":872:950   */\n              swap4\n              pop\n                /* \"#utility.yul\":959:1011   */\n              tag_33\n                /* \"#utility.yul\":1004:1010   */\n              dup2\n                /* \"#utility.yul\":999:1002   */\n              dup6\n                /* \"#utility.yul\":992:996   */\n              0x20\n                /* \"#utility.yul\":985:990   */\n              dup7\n                /* \"#utility.yul\":981:997   */\n              add\n                /* \"#utility.yul\":959:1011   */\n              tag_17\n              jump\t// in\n            tag_33:\n                /* \"#utility.yul\":1036:1065   */\n              tag_34\n                /* \"#utility.yul\":1058:1064   */\n              dup2\n                /* \"#utility.yul\":1036:1065   */\n              tag_18\n              jump\t// in\n            tag_34:\n                /* \"#utility.yul\":1031:1034   */\n              dup5\n                /* \"#utility.yul\":1027:1066   */\n              add\n                /* \"#utility.yul\":1020:1066   */\n              swap2\n              pop\n                /* \"#utility.yul\":800:1072   */\n              pop\n                /* \"#utility.yul\":708:1072   */\n              swap3\n              swap2\n              pop\n              pop\n              jump\t// out\n                /* \"#utility.yul\":1078:1391   */\n            tag_7:\n                /* \"#utility.yul\":1191:1195   */\n              0x00\n                /* \"#utility.yul\":1229:1231   */\n              0x20\n                /* \"#utility.yul\":1218:1227   */\n              dup3\n                /* \"#utility.yul\":1214:1232   */\n              add\n                /* \"#utility.yul\":1206:1232   */\n              swap1\n              pop\n                /* \"#utility.yul\":1278:1287   */\n              dup2\n                /* \"#utility.yul\":1272:1276   */\n              dup2\n                /* \"#utility.yul\":1268:1288   */\n              sub\n                /* \"#utility.yul\":1264:1265   */\n              0x00\n                /* \"#utility.yul\":1253:1262   */\n              dup4\n                /* \"#utility.yul\":1249:1266   */\n              add\n                /* \"#utility.yul\":1242:1289   */\n              mstore\n                /* \"#utility.yul\":1306:1384   */\n              tag_36\n                /* \"#utility.yul\":1379:1383   */\n              dup2\n                /* \"#utility.yul\":1370:1376   */\n              dup5\n                /* \"#utility.yul\":1306:1384   */\n              tag_19\n              jump\t// in\n            tag_36:\n                /* \"#utility.yul\":1298:1384   */\n              swap1\n              pop\n                /* \"#utility.yul\":1078:1391   */\n              swap3\n              swap2\n              pop\n              pop\n              jump\t// out\n                /* \"#utility.yul\":1397:1577   */\n            tag_20:\n                /* \"#utility.yul\":1445:1522   */\n              0x4e487b7100000000000000000000000000000000000000000000000000000000\n                /* \"#utility.yul\":1442:1443   */\n              0x00\n                /* \"#utility.yul\":1435:1523   */\n              mstore\n                /* \"#utility.yul\":1542:1546   */\n              0x22\n                /* \"#utility.yul\":1539:1540   */\n              0x04\n                /* \"#utility.yul\":1532:1547   */\n              mstore\n                /* \"#utility.yul\":1566:1570   */\n              0x24\n                /* \"#utility.yul\":1563:1564   */\n              0x00\n                /* \"#utility.yul\":1556:1571   */\n              revert\n                /* \"#utility.yul\":1583:1903   */\n            tag_10:\n                /* \"#utility.yul\":1627:1633   */\n              0x00\n                /* \"#utility.yul\":1664:1665   */\n              0x02\n                /* \"#utility.yul\":1658:1662   */\n              dup3\n                /* \"#utility.yul\":1654:1666   */\n              div\n                /* \"#utility.yul\":1644:1666   */\n              swap1\n              pop\n                /* \"#utility.yul\":1711:1712   */\n              0x01\n                /* \"#utility.yul\":1705:1709   */\n              dup3\n                /* \"#utility.yul\":1701:1713   */\n              and\n                /* \"#utility.yul\":1732:1750   */\n              dup1\n                /* \"#utility.yul\":1722:1803   */\n              tag_39\n              jumpi\n                /* \"#utility.yul\":1788:1792   */\n              0x7f\n                /* \"#utility.yul\":1780:1786   */\n              dup3\n                /* \"#utility.yul\":1776:1793   */\n              and\n                /* \"#utility.yul\":1766:1793   */\n              swap2\n              pop\n                /* \"#utility.yul\":1722:1803   */\n            tag_39:\n                /* \"#utility.yul\":1850:1852   */\n              0x20\n                /* \"#utility.yul\":1842:1848   */\n              dup3\n                /* \"#utility.yul\":1839:1853   */\n              lt\n                /* \"#utility.yul\":1819:1837   */\n              dup2\n                /* \"#utility.yul\":1816:1854   */\n              sub\n                /* \"#utility.yul\":1813:1897   */\n              tag_40\n              jumpi\n                /* \"#utility.yul\":1869:1887   */\n              tag_41\n              tag_20\n              jump\t// in\n            tag_41:\n                /* \"#utility.yul\":1813:1897   */\n            tag_40:\n                /* \"#utility.yul\":1634:1903   */\n              pop\n                /* \"#utility.yul\":1583:1903   */\n              swap2\n              swap1\n              pop\n              jump\t// out\n\n            auxdata: 0xa264697066735822122008859ffeb15f083c5313d1915365245f37ca6016412ccc7bd181c27c7db874db64736f6c634300080d0033\n        }\n    }\n\n    auxdata: 0xa2646970667358221220ff1ba37f1d2f9b3795c99b8b93e32a272fe2edceffa167ad75354cabafc1c64264736f6c634300080d0033\n}\n",
				"bytecode": {
					"linkReferences": {},
					"object": "60806040526040518060400160405280600681526020017f6e6f626f647900000000000000000000000000000000000000000000000000008152506000908051906020019061004f929190610062565b5034801561005c57600080fd5b50610165565b82805461006e90610134565b90600052602060002090601f01602090048101928261009057600085556100d7565b82601f106100a957805160ff19168380011785556100d7565b828001600101855582156100d7579182015b828111156100d65782518255916020019190600101906100bb565b5b5090506100e491906100e8565b5090565b5b808211156101015760008160009055506001016100e9565b5090565b7f4e487b7100000000000000000000000000000000000000000000000000000000600052602260045260246000fd5b6000600282049050600182168061014c57607f821691505b60208210810361015f5761015e610105565b5b50919050565b61082b806101746000396000f3fe608060405234801561001057600080fd5b50600436106100365760003560e01c806317d7de7c1461003b578063c47f00271461005b575b600080fd5b610043610077565b60405161005293929190610212565b60405180910390f35b610075600480360381019061007091906103a7565b6100af565b005b6060806060600060405161008a906100c9565b604051809103906000f0801580156100a6573d6000803e3d6000fd5b50905050909192565b80600090805190602001906100c59291906100d6565b5050565b6103a58061045183390190565b8280546100e29061041f565b90600052602060002090601f016020900481019282610104576000855561014b565b82601f1061011d57805160ff191683800117855561014b565b8280016001018555821561014b579182015b8281111561014a57825182559160200191906001019061012f565b5b509050610158919061015c565b5090565b5b8082111561017557600081600090555060010161015d565b5090565b600081519050919050565b600082825260208201905092915050565b60005b838110156101b3578082015181840152602081019050610198565b838111156101c2576000848401525b50505050565b6000601f19601f8301169050919050565b60006101e482610179565b6101ee8185610184565b93506101fe818560208601610195565b610207816101c8565b840191505092915050565b6000606082019050818103600083015261022c81866101d9565b9050818103602083015261024081856101d9565b9050818103604083015261025481846101d9565b9050949350505050565b6000604051905090565b600080fd5b600080fd5b600080fd5b600080fd5b7f4e487b7100000000000000000000000000000000000000000000000000000000600052604160045260246000fd5b6102b4826101c8565b810181811067ffffffffffffffff821117156102d3576102d261027c565b5b80604052505050565b60006102e661025e565b90506102f282826102ab565b919050565b600067ffffffffffffffff8211156103125761031161027c565b5b61031b826101c8565b9050602081019050919050565b82818337600083830152505050565b600061034a610345846102f7565b6102dc565b90508281526020810184848401111561036657610365610277565b5b610371848285610328565b509392505050565b600082601f83011261038e5761038d610272565b5b813561039e848260208601610337565b91505092915050565b6000602082840312156103bd576103bc610268565b5b600082013567ffffffffffffffff8111156103db576103da61026d565b5b6103e784828501610379565b91505092915050565b7f4e487b7100000000000000000000000000000000000000000000000000000000600052602260045260246000fd5b6000600282049050600182168061043757607f821691505b60208210810361044a576104496103f0565b5b5091905056fe60806040526040518060400160405280600681526020017f77616e67777500000000000000000000000000000000000000000000000000008152506000908051906020019061004f929190610062565b5034801561005c57600080fd5b50610165565b82805461006e90610134565b90600052602060002090601f01602090048101928261009057600085556100d7565b82601f106100a957805160ff19168380011785556100d7565b828001600101855582156100d7579182015b828111156100d65782518255916020019190600101906100bb565b5b5090506100e491906100e8565b5090565b5b808211156101015760008160009055506001016100e9565b5090565b7f4e487b7100000000000000000000000000000000000000000000000000000000600052602260045260246000fd5b6000600282049050600182168061014c57607f821691505b60208210810361015f5761015e610105565b5b50919050565b610231806101746000396000f3fe608060405234801561001057600080fd5b506004361061002b5760003560e01c8063abff03f714610030575b600080fd5b61003861004e565b6040516100459190610179565b60405180910390f35b60606000805461005d906101ca565b80601f0160208091040260200160405190810160405280929190818152602001828054610089906101ca565b80156100d65780601f106100ab576101008083540402835291602001916100d6565b820191906000526020600020905b8154815290600101906020018083116100b957829003601f168201915b5050505050905090565b600081519050919050565b600082825260208201905092915050565b60005b8381101561011a5780820151818401526020810190506100ff565b83811115610129576000848401525b50505050565b6000601f19601f8301169050919050565b600061014b826100e0565b61015581856100eb565b93506101658185602086016100fc565b61016e8161012f565b840191505092915050565b600060208201905081810360008301526101938184610140565b905092915050565b7f4e487b7100000000000000000000000000000000000000000000000000000000600052602260045260246000fd5b600060028204905060018216806101e257607f821691505b6020821081036101f5576101f461019b565b5b5091905056fea264697066735822122008859ffeb15f083c5313d1915365245f37ca6016412ccc7bd181c27c7db874db64736f6c634300080d0033a2646970667358221220ff1ba37f1d2f9b3795c99b8b93e32a272fe2edceffa167ad75354cabafc1c64264736f6c634300080d0033",
					"opcodes": "PUSH1 0x80 PUSH1 0x40 MSTORE PUSH1 0x40 MLOAD DUP1 PUSH1 0x40 ADD PUSH1 0x40 MSTORE DUP1 PUSH1 0x6 DUP2 MSTORE PUSH1 0x20 ADD PUSH32 0x6E6F626F64790000000000000000000000000000000000000000000000000000 DUP2 MSTORE POP PUSH1 0x0 SWAP1 DUP1 MLOAD SWAP1 PUSH1 0x20 ADD SWAP1 PUSH2 0x4F SWAP3 SWAP2 SWAP1 PUSH2 0x62 JUMP JUMPDEST POP CALLVALUE DUP1 ISZERO PUSH2 0x5C JUMPI PUSH1 0x0 DUP1 REVERT JUMPDEST POP PUSH2 0x165 JUMP JUMPDEST DUP3 DUP1 SLOAD PUSH2 0x6E SWAP1 PUSH2 0x134 JUMP JUMPDEST SWAP1 PUSH1 0x0 MSTORE PUSH1 0x20 PUSH1 0x0 KECCAK256 SWAP1 PUSH1 0x1F ADD PUSH1 0x20 SWAP1 DIV DUP2 ADD SWAP3 DUP3 PUSH2 0x90 JUMPI PUSH1 0x0 DUP6 SSTORE PUSH2 0xD7 JUMP JUMPDEST DUP3 PUSH1 0x1F LT PUSH2 0xA9 JUMPI DUP1 MLOAD PUSH1 0xFF NOT AND DUP4 DUP1 ADD OR DUP6 SSTORE PUSH2 0xD7 JUMP JUMPDEST DUP3 DUP1 ADD PUSH1 0x1 ADD DUP6 SSTORE DUP3 ISZERO PUSH2 0xD7 JUMPI SWAP2 DUP3 ADD JUMPDEST DUP3 DUP2 GT ISZERO PUSH2 0xD6 JUMPI DUP3 MLOAD DUP3 SSTORE SWAP2 PUSH1 0x20 ADD SWAP2 SWAP1 PUSH1 0x1 ADD SWAP1 PUSH2 0xBB JUMP JUMPDEST JUMPDEST POP SWAP1 POP PUSH2 0xE4 SWAP2 SWAP1 PUSH2 0xE8 JUMP JUMPDEST POP SWAP1 JUMP JUMPDEST JUMPDEST DUP1 DUP3 GT ISZERO PUSH2 0x101 JUMPI PUSH1 0x0 DUP2 PUSH1 0x0 SWAP1 SSTORE POP PUSH1 0x1 ADD PUSH2 0xE9 JUMP JUMPDEST POP SWAP1 JUMP JUMPDEST PUSH32 0x4E487B7100000000000000000000000000000000000000000000000000000000 PUSH1 0x0 MSTORE PUSH1 0x22 PUSH1 0x4 MSTORE PUSH1 0x24 PUSH1 0x0 REVERT JUMPDEST PUSH1 0x0 PUSH1 0x2 DUP3 DIV SWAP1 POP PUSH1 0x1 DUP3 AND DUP1 PUSH2 0x14C JUMPI PUSH1 0x7F DUP3 AND SWAP2 POP JUMPDEST PUSH1 0x20 DUP3 LT DUP2 SUB PUSH2 0x15F JUMPI PUSH2 0x15E PUSH2 0x105 JUMP JUMPDEST JUMPDEST POP SWAP2 SWAP1 POP JUMP JUMPDEST PUSH2 0x82B DUP1 PUSH2 0x174 PUSH1 0x0 CODECOPY PUSH1 0x0 RETURN INVALID PUSH1 0x80 PUSH1 0x40 MSTORE CALLVALUE DUP1 ISZERO PUSH2 0x10 JUMPI PUSH1 0x0 DUP1 REVERT JUMPDEST POP PUSH1 0x4 CALLDATASIZE LT PUSH2 0x36 JUMPI PUSH1 0x0 CALLDATALOAD PUSH1 0xE0 SHR DUP1 PUSH4 0x17D7DE7C EQ PUSH2 0x3B JUMPI DUP1 PUSH4 0xC47F0027 EQ PUSH2 0x5B JUMPI JUMPDEST PUSH1 0x0 DUP1 REVERT JUMPDEST PUSH2 0x43 PUSH2 0x77 JUMP JUMPDEST PUSH1 0x40 MLOAD PUSH2 0x52 SWAP4 SWAP3 SWAP2 SWAP1 PUSH2 0x212 JUMP JUMPDEST PUSH1 0x40 MLOAD DUP1 SWAP2 SUB SWAP1 RETURN JUMPDEST PUSH2 0x75 PUSH1 0x4 DUP1 CALLDATASIZE SUB DUP2 ADD SWAP1 PUSH2 0x70 SWAP2 SWAP1 PUSH2 0x3A7 JUMP JUMPDEST PUSH2 0xAF JUMP JUMPDEST STOP JUMPDEST PUSH1 0x60 DUP1 PUSH1 0x60 PUSH1 0x0 PUSH1 0x40 MLOAD PUSH2 0x8A SWAP1 PUSH2 0xC9 JUMP JUMPDEST PUSH1 0x40 MLOAD DUP1 SWAP2 SUB SWAP1 PUSH1 0x0 CREATE DUP1 ISZERO DUP1 ISZERO PUSH2 0xA6 JUMPI RETURNDATASIZE PUSH1 0x0 DUP1 RETURNDATACOPY RETURNDATASIZE PUSH1 0x0 REVERT JUMPDEST POP SWAP1 POP POP SWAP1 SWAP2 SWAP3 JUMP JUMPDEST DUP1 PUSH1 0x0 SWAP1 DUP1 MLOAD SWAP1 PUSH1 0x20 ADD SWAP1 PUSH2 0xC5 SWAP3 SWAP2 SWAP1 PUSH2 0xD6 JUMP JUMPDEST POP POP JUMP JUMPDEST PUSH2 0x3A5 DUP1 PUSH2 0x451 DUP4 CODECOPY ADD SWAP1 JUMP JUMPDEST DUP3 DUP1 SLOAD PUSH2 0xE2 SWAP1 PUSH2 0x41F JUMP JUMPDEST SWAP1 PUSH1 0x0 MSTORE PUSH1 0x20 PUSH1 0x0 KECCAK256 SWAP1 PUSH1 0x1F ADD PUSH1 0x20 SWAP1 DIV DUP2 ADD SWAP3 DUP3 PUSH2 0x104 JUMPI PUSH1 0x0 DUP6 SSTORE PUSH2 0x14B JUMP JUMPDEST DUP3 PUSH1 0x1F LT PUSH2 0x11D JUMPI DUP1 MLOAD PUSH1 0xFF NOT AND DUP4 DUP1 ADD OR DUP6 SSTORE PUSH2 0x14B JUMP JUMPDEST DUP3 DUP1 ADD PUSH1 0x1 ADD DUP6 SSTORE DUP3 ISZERO PUSH2 0x14B JUMPI SWAP2 DUP3 ADD JUMPDEST DUP3 DUP2 GT ISZERO PUSH2 0x14A JUMPI DUP3 MLOAD DUP3 SSTORE SWAP2 PUSH1 0x20 ADD SWAP2 SWAP1 PUSH1 0x1 ADD SWAP1 PUSH2 0x12F JUMP JUMPDEST JUMPDEST POP SWAP1 POP PUSH2 0x158 SWAP2 SWAP1 PUSH2 0x15C JUMP JUMPDEST POP SWAP1 JUMP JUMPDEST JUMPDEST DUP1 DUP3 GT ISZERO PUSH2 0x175 JUMPI PUSH1 0x0 DUP2 PUSH1 0x0 SWAP1 SSTORE POP PUSH1 0x1 ADD PUSH2 0x15D JUMP JUMPDEST POP SWAP1 JUMP JUMPDEST PUSH1 0x0 DUP2 MLOAD SWAP1 POP SWAP2 SWAP1 POP JUMP JUMPDEST PUSH1 0x0 DUP3 DUP3 MSTORE PUSH1 0x20 DUP3 ADD SWAP1 POP SWAP3 SWAP2 POP POP JUMP JUMPDEST PUSH1 0x0 JUMPDEST DUP4 DUP2 LT ISZERO PUSH2 0x1B3 JUMPI DUP1 DUP3 ADD MLOAD DUP2 DUP5 ADD MSTORE PUSH1 0x20 DUP2 ADD SWAP1 POP PUSH2 0x198 JUMP JUMPDEST DUP4 DUP2 GT ISZERO PUSH2 0x1C2 JUMPI PUSH1 0x0 DUP5 DUP5 ADD MSTORE JUMPDEST POP POP POP POP JUMP JUMPDEST PUSH1 0x0 PUSH1 0x1F NOT PUSH1 0x1F DUP4 ADD AND SWAP1 POP SWAP2 SWAP1 POP JUMP JUMPDEST PUSH1 0x0 PUSH2 0x1E4 DUP3 PUSH2 0x179 JUMP JUMPDEST PUSH2 0x1EE DUP2 DUP6 PUSH2 0x184 JUMP JUMPDEST SWAP4 POP PUSH2 0x1FE DUP2 DUP6 PUSH1 0x20 DUP7 ADD PUSH2 0x195 JUMP JUMPDEST PUSH2 0x207 DUP2 PUSH2 0x1C8 JUMP JUMPDEST DUP5 ADD SWAP2 POP POP SWAP3 SWAP2 POP POP JUMP JUMPDEST PUSH1 0x0 PUSH1 0x60 DUP3 ADD SWAP1 POP DUP2 DUP2 SUB PUSH1 0x0 DUP4 ADD MSTORE PUSH2 0x22C DUP2 DUP7 PUSH2 0x1D9 JUMP JUMPDEST SWAP1 POP DUP2 DUP2 SUB PUSH1 0x20 DUP4 ADD MSTORE PUSH2 0x240 DUP2 DUP6 PUSH2 0x1D9 JUMP JUMPDEST SWAP1 POP DUP2 DUP2 SUB PUSH1 0x40 DUP4 ADD MSTORE PUSH2 0x254 DUP2 DUP5 PUSH2 0x1D9 JUMP JUMPDEST SWAP1 POP SWAP5 SWAP4 POP POP POP POP JUMP JUMPDEST PUSH1 0x0 PUSH1 0x40 MLOAD SWAP1 POP SWAP1 JUMP JUMPDEST PUSH1 0x0 DUP1 REVERT JUMPDEST PUSH1 0x0 DUP1 REVERT JUMPDEST PUSH1 0x0 DUP1 REVERT JUMPDEST PUSH1 0x0 DUP1 REVERT JUMPDEST PUSH32 0x4E487B7100000000000000000000000000000000000000000000000000000000 PUSH1 0x0 MSTORE PUSH1 0x41 PUSH1 0x4 MSTORE PUSH1 0x24 PUSH1 0x0 REVERT JUMPDEST PUSH2 0x2B4 DUP3 PUSH2 0x1C8 JUMP JUMPDEST DUP2 ADD DUP2 DUP2 LT PUSH8 0xFFFFFFFFFFFFFFFF DUP3 GT OR ISZERO PUSH2 0x2D3 JUMPI PUSH2 0x2D2 PUSH2 0x27C JUMP JUMPDEST JUMPDEST DUP1 PUSH1 0x40 MSTORE POP POP POP JUMP JUMPDEST PUSH1 0x0 PUSH2 0x2E6 PUSH2 0x25E JUMP JUMPDEST SWAP1 POP PUSH2 0x2F2 DUP3 DUP3 PUSH2 0x2AB JUMP JUMPDEST SWAP2 SWAP1 POP JUMP JUMPDEST PUSH1 0x0 PUSH8 0xFFFFFFFFFFFFFFFF DUP3 GT ISZERO PUSH2 0x312 JUMPI PUSH2 0x311 PUSH2 0x27C JUMP JUMPDEST JUMPDEST PUSH2 0x31B DUP3 PUSH2 0x1C8 JUMP JUMPDEST SWAP1 POP PUSH1 0x20 DUP2 ADD SWAP1 POP SWAP2 SWAP1 POP JUMP JUMPDEST DUP3 DUP2 DUP4 CALLDATACOPY PUSH1 0x0 DUP4 DUP4 ADD MSTORE POP POP POP JUMP JUMPDEST PUSH1 0x0 PUSH2 0x34A PUSH2 0x345 DUP5 PUSH2 0x2F7 JUMP JUMPDEST PUSH2 0x2DC JUMP JUMPDEST SWAP1 POP DUP3 DUP2 MSTORE PUSH1 0x20 DUP2 ADD DUP5 DUP5 DUP5 ADD GT ISZERO PUSH2 0x366 JUMPI PUSH2 0x365 PUSH2 0x277 JUMP JUMPDEST JUMPDEST PUSH2 0x371 DUP5 DUP3 DUP6 PUSH2 0x328 JUMP JUMPDEST POP SWAP4 SWAP3 POP POP POP JUMP JUMPDEST PUSH1 0x0 DUP3 PUSH1 0x1F DUP4 ADD SLT PUSH2 0x38E JUMPI PUSH2 0x38D PUSH2 0x272 JUMP JUMPDEST JUMPDEST DUP2 CALLDATALOAD PUSH2 0x39E DUP5 DUP3 PUSH1 0x20 DUP7 ADD PUSH2 0x337 JUMP JUMPDEST SWAP2 POP POP SWAP3 SWAP2 POP POP JUMP JUMPDEST PUSH1 0x0 PUSH1 0x20 DUP3 DUP5 SUB SLT ISZERO PUSH2 0x3BD JUMPI PUSH2 0x3BC PUSH2 0x268 JUMP JUMPDEST JUMPDEST PUSH1 0x0 DUP3 ADD CALLDATALOAD PUSH8 0xFFFFFFFFFFFFFFFF DUP2 GT ISZERO PUSH2 0x3DB JUMPI PUSH2 0x3DA PUSH2 0x26D JUMP JUMPDEST JUMPDEST PUSH2 0x3E7 DUP5 DUP3 DUP6 ADD PUSH2 0x379 JUMP JUMPDEST SWAP2 POP POP SWAP3 SWAP2 POP POP JUMP JUMPDEST PUSH32 0x4E487B7100000000000000000000000000000000000000000000000000000000 PUSH1 0x0 MSTORE PUSH1 0x22 PUSH1 0x4 MSTORE PUSH1 0x24 PUSH1 0x0 REVERT JUMPDEST PUSH1 0x0 PUSH1 0x2 DUP3 DIV SWAP1 POP PUSH1 0x1 DUP3 AND DUP1 PUSH2 0x437 JUMPI PUSH1 0x7F DUP3 AND SWAP2 POP JUMPDEST PUSH1 0x20 DUP3 LT DUP2 SUB PUSH2 0x44A JUMPI PUSH2 0x449 PUSH2 0x3F0 JUMP JUMPDEST JUMPDEST POP SWAP2 SWAP1 POP JUMP INVALID PUSH1 0x80 PUSH1 0x40 MSTORE PUSH1 0x40 MLOAD DUP1 PUSH1 0x40 ADD PUSH1 0x40 MSTORE DUP1 PUSH1 0x6 DUP2 MSTORE PUSH1 0x20 ADD PUSH32 0x77616E6777750000000000000000000000000000000000000000000000000000 DUP2 MSTORE POP PUSH1 0x0 SWAP1 DUP1 MLOAD SWAP1 PUSH1 0x20 ADD SWAP1 PUSH2 0x4F SWAP3 SWAP2 SWAP1 PUSH2 0x62 JUMP JUMPDEST POP CALLVALUE DUP1 ISZERO PUSH2 0x5C JUMPI PUSH1 0x0 DUP1 REVERT JUMPDEST POP PUSH2 0x165 JUMP JUMPDEST DUP3 DUP1 SLOAD PUSH2 0x6E SWAP1 PUSH2 0x134 JUMP JUMPDEST SWAP1 PUSH1 0x0 MSTORE PUSH1 0x20 PUSH1 0x0 KECCAK256 SWAP1 PUSH1 0x1F ADD PUSH1 0x20 SWAP1 DIV DUP2 ADD SWAP3 DUP3 PUSH2 0x90 JUMPI PUSH1 0x0 DUP6 SSTORE PUSH2 0xD7 JUMP JUMPDEST DUP3 PUSH1 0x1F LT PUSH2 0xA9 JUMPI DUP1 MLOAD PUSH1 0xFF NOT AND DUP4 DUP1 ADD OR DUP6 SSTORE PUSH2 0xD7 JUMP JUMPDEST DUP3 DUP1 ADD PUSH1 0x1 ADD DUP6 SSTORE DUP3 ISZERO PUSH2 0xD7 JUMPI SWAP2 DUP3 ADD JUMPDEST DUP3 DUP2 GT ISZERO PUSH2 0xD6 JUMPI DUP3 MLOAD DUP3 SSTORE SWAP2 PUSH1 0x20 ADD SWAP2 SWAP1 PUSH1 0x1 ADD SWAP1 PUSH2 0xBB JUMP JUMPDEST JUMPDEST POP SWAP1 POP PUSH2 0xE4 SWAP2 SWAP1 PUSH2 0xE8 JUMP JUMPDEST POP SWAP1 JUMP JUMPDEST JUMPDEST DUP1 DUP3 GT ISZERO PUSH2 0x101 JUMPI PUSH1 0x0 DUP2 PUSH1 0x0 SWAP1 SSTORE POP PUSH1 0x1 ADD PUSH2 0xE9 JUMP JUMPDEST POP SWAP1 JUMP JUMPDEST PUSH32 0x4E487B7100000000000000000000000000000000000000000000000000000000 PUSH1 0x0 MSTORE PUSH1 0x22 PUSH1 0x4 MSTORE PUSH1 0x24 PUSH1 0x0 REVERT JUMPDEST PUSH1 0x0 PUSH1 0x2 DUP3 DIV SWAP1 POP PUSH1 0x1 DUP3 AND DUP1 PUSH2 0x14C JUMPI PUSH1 0x7F DUP3 AND SWAP2 POP JUMPDEST PUSH1 0x20 DUP3 LT DUP2 SUB PUSH2 0x15F JUMPI PUSH2 0x15E PUSH2 0x105 JUMP JUMPDEST JUMPDEST POP SWAP2 SWAP1 POP JUMP JUMPDEST PUSH2 0x231 DUP1 PUSH2 0x174 PUSH1 0x0 CODECOPY PUSH1 0x0 RETURN INVALID PUSH1 0x80 PUSH1 0x40 MSTORE CALLVALUE DUP1 ISZERO PUSH2 0x10 JUMPI PUSH1 0x0 DUP1 REVERT JUMPDEST POP PUSH1 0x4 CALLDATASIZE LT PUSH2 0x2B JUMPI PUSH1 0x0 CALLDATALOAD PUSH1 0xE0 SHR DUP1 PUSH4 0xABFF03F7 EQ PUSH2 0x30 JUMPI JUMPDEST PUSH1 0x0 DUP1 REVERT JUMPDEST PUSH2 0x38 PUSH2 0x4E JUMP JUMPDEST PUSH1 0x40 MLOAD PUSH2 0x45 SWAP2 SWAP1 PUSH2 0x179 JUMP JUMPDEST PUSH1 0x40 MLOAD DUP1 SWAP2 SUB SWAP1 RETURN JUMPDEST PUSH1 0x60 PUSH1 0x0 DUP1 SLOAD PUSH2 0x5D SWAP1 PUSH2 0x1CA JUMP JUMPDEST DUP1 PUSH1 0x1F ADD PUSH1 0x20 DUP1 SWAP2 DIV MUL PUSH1 0x20 ADD PUSH1 0x40 MLOAD SWAP1 DUP2 ADD PUSH1 0x40 MSTORE DUP1 SWAP3 SWAP2 SWAP1 DUP2 DUP2 MSTORE PUSH1 0x20 ADD DUP3 DUP1 SLOAD PUSH2 0x89 SWAP1 PUSH2 0x1CA JUMP JUMPDEST DUP1 ISZERO PUSH2 0xD6 JUMPI DUP1 PUSH1 0x1F LT PUSH2 0xAB JUMPI PUSH2 0x100 DUP1 DUP4 SLOAD DIV MUL DUP4 MSTORE SWAP2 PUSH1 0x20 ADD SWAP2 PUSH2 0xD6 JUMP JUMPDEST DUP3 ADD SWAP2 SWAP1 PUSH1 0x0 MSTORE PUSH1 0x20 PUSH1 0x0 KECCAK256 SWAP1 JUMPDEST DUP2 SLOAD DUP2 MSTORE SWAP1 PUSH1 0x1 ADD SWAP1 PUSH1 0x20 ADD DUP1 DUP4 GT PUSH2 0xB9 JUMPI DUP3 SWAP1 SUB PUSH1 0x1F AND DUP3 ADD SWAP2 JUMPDEST POP POP POP POP POP SWAP1 POP SWAP1 JUMP JUMPDEST PUSH1 0x0 DUP2 MLOAD SWAP1 POP SWAP2 SWAP1 POP JUMP JUMPDEST PUSH1 0x0 DUP3 DUP3 MSTORE PUSH1 0x20 DUP3 ADD SWAP1 POP SWAP3 SWAP2 POP POP JUMP JUMPDEST PUSH1 0x0 JUMPDEST DUP4 DUP2 LT ISZERO PUSH2 0x11A JUMPI DUP1 DUP3 ADD MLOAD DUP2 DUP5 ADD MSTORE PUSH1 0x20 DUP2 ADD SWAP1 POP PUSH2 0xFF JUMP JUMPDEST DUP4 DUP2 GT ISZERO PUSH2 0x129 JUMPI PUSH1 0x0 DUP5 DUP5 ADD MSTORE JUMPDEST POP POP POP POP JUMP JUMPDEST PUSH1 0x0 PUSH1 0x1F NOT PUSH1 0x1F DUP4 ADD AND SWAP1 POP SWAP2 SWAP1 POP JUMP JUMPDEST PUSH1 0x0 PUSH2 0x14B DUP3 PUSH2 0xE0 JUMP JUMPDEST PUSH2 0x155 DUP2 DUP6 PUSH2 0xEB JUMP JUMPDEST SWAP4 POP PUSH2 0x165 DUP2 DUP6 PUSH1 0x20 DUP7 ADD PUSH2 0xFC JUMP JUMPDEST PUSH2 0x16E DUP2 PUSH2 0x12F JUMP JUMPDEST DUP5 ADD SWAP2 POP POP SWAP3 SWAP2 POP POP JUMP JUMPDEST PUSH1 0x0 PUSH1 0x20 DUP3 ADD SWAP1 POP DUP2 DUP2 SUB PUSH1 0x0 DUP4 ADD MSTORE PUSH2 0x193 DUP2 DUP5 PUSH2 0x140 JUMP JUMPDEST SWAP1 POP SWAP3 SWAP2 POP POP JUMP JUMPDEST PUSH32 0x4E487B7100000000000000000000000000000000000000000000000000000000 PUSH1 0x0 MSTORE PUSH1 0x22 PUSH1 0x4 MSTORE PUSH1 0x24 PUSH1 0x0 REVERT JUMPDEST PUSH1 0x0 PUSH1 0x2 DUP3 DIV SWAP1 POP PUSH1 0x1 DUP3 AND DUP1 PUSH2 0x1E2 JUMPI PUSH1 0x7F DUP3 AND SWAP2 POP JUMPDEST PUSH1 0x20 DUP3 LT DUP2 SUB PUSH2 0x1F5 JUMPI PUSH2 0x1F4 PUSH2 0x19B JUMP JUMPDEST JUMPDEST POP SWAP2 SWAP1 POP JUMP INVALID LOG2 PUSH5 0x6970667358 0x22 SLT KECCAK256 ADDMOD DUP6 SWAP16 INVALID 0xB1 0x5F ADDMOD EXTCODECOPY MSTORE8 SGT 0xD1 SWAP2 MSTORE8 PUSH6 0x245F37CA6016 COINBASE 0x2C 0xCC PUSH28 0xD181C27C7DB874DB64736F6C634300080D0033A26469706673582212 KECCAK256 SELFDESTRUCT SHL LOG3 PUSH32 0x1D2F9B3795C99B8B93E32A272FE2EDCEFFA167AD75354CABAFC1C64264736F6C PUSH4 0x4300080D STOP CALLER "
				},
				"gasEstimates": {
					"creation": {
						"codeDepositCost": "418200",
						"executionCost": "infinite",
						"totalCost": "infinite"
					},
					"external": {
						"getName()": "infinite",
						"setName(string)": "infinite"
					}
				},
				"methodIdentifiers": {
					"getName()": "17d7de7c",
					"setName(string)": "c47f0027"
				}
			},
			"storageLayout": {
				"storage": [
					{
						"astId": 5,
						"contract": "study-token/DemoA.sol:DemoA",
						"label": "name",
						"offset": 0,
						"slot": "0",
						"type": "t_string_storage"
					}
				],
				"types": {
					"t_string_storage": {
						"encoding": "bytes",
						"label": "string",
						"numberOfBytes": "32"
					}
				}
			},
			"userdoc": {
				"kind": "user",
				"methods": {},
				"version": 1
			}
		}
	}
}